:020000040800F2
:10000000680B002029020008A109000899090008CE
:100010009D090008090600084311000800000000BF
:10002000000000000000000000000000690B000854
:10003000C1080008000000001D0A0008590C000853
:10004000430200084302000843020008430200087C
:10005000430200084302000843020008430200086C
:10006000430200084302000843020008430200085C
:10007000430200084302000843020008430200084C
:100080000D0600084302000843020008430200086E
:10009000430200084302000843020008430200082C
:1000A000430200084302000843020008430200081C
:1000B000430200084302000843020008430200080C
:1000C00043020008430200084302000843020008FC
:1000D00043020008E90C00089D0E000843020008D6
:1000E00043020008430200084302000843020008DC
:1000F00043020008430200084302000843020008CC
:1001000043020008430200084302000843020008BB
:1001100043020008430200084302000843020008AB
:10012000430200084302000843020008430200089B
:10013000430200084302000843020008430200088B
:10014000430200084302000843020008430200087B
:10015000430200084302000843020008430200086B
:10016000430200084302000843020008430200085B
:10017000430200084302000843020008430200084B
:10018000430200084302000800F002F800F03CF8C7
:100190000AA090E8000C82448344AAF10107DA45E2
:1001A00001D100F031F8AFF2090EBAE80F0013F0F8
:1001B000010F18BFFB1A43F0010318473813000062
:1001C00058130000103A24BF78C878C1FAD85207F3
:1001D00024BF30C830C144BF04680C6070470000C1
:1001E0000023002400250026103A28BF78C1FBD840
:1001F000520728BF30C148BF0B6070471FB501F0E0
:1002000073F91FBD10B510BD00F0B8F91146FFF726
:10021000F5FF01F051F800F0EAF903B4FFF7F2FF3F
:1002200003BC00F090FF00000948804709480047E0
:10023000FEE7FEE7FEE7FEE7FEE7FEE7FEE7FEE796
:10024000FEE7FEE704480549054A064B70470000F3
:10025000810C00088901000868050020680B002057
:100260006807002068070020704753EA020C00F07E
:1002700069802DE9F04B4FF00006002B1FBFB3FA49
:1002800083F503FA05F424FA05F65E4012BF16431F
:10029000B2FA82F502FA05F4C5F120051EBF22FA72
:1002A00005FC44EA0C04203556EA044C4FEA144499
:1002B00018BF641C4FF000084FF00009904271EB2A
:1002C000030C39D3002919BFB1FA81F701FA07F6F7
:1002D000B0FA80F700FA07F6C7F120071EBF20FA30
:1002E00007FC46EA0C062037B6FBF4FCA7EB050733
:1002F000103F07F01F0BCBF120060CFA0BFB2CFA7A
:1003000006F644BFB3460026202FA4BF5E464FF03A
:10031000000B5BEA060C08BF4FF0010B19EB0B0951
:10032000ABFB027C48EB0608C01B06FB02CC0BFBB8
:1003300003CC71EB0C01C1E70B460246414648462F
:10034000BDE8F08B13B54FF000004FF00001AFF3A4
:100350000080BDE81C4070470FB4044910B503AAE3
:10036000029800F083F810BC5DF814FB0000002038
:1003700030B505460B462A4613F8014B12F8010B1F
:1003800008B1A042F8D01CB1002802D06D1CF1E7E2
:10039000284630BD032A40F2308010F0030C00F0F4
:1003A000158011F8013BBCF1020F624498BF11F8AF
:1003B00001CB00F8013B38BF11F8013BA2F1040268
:1003C00098BF00F801CB38BF00F8013B11F00303E0
:1003D00000F05E80083AC0F0088051F8043B083A0B
:1003E00051F804CBA0E80810F5E7121D5CBF51F8E6
:1003F000043B40F8043BAFF30080D20724BF11F860
:10040000013B11F801CB48BF11F8012B24BF00F8C4
:10041000013B00F801CB48BF00F8012B70474FF0BB
:1004200000020429C0F0128010F0030C00F0648078
:10043000CCF1040CBCF1020F18BF00F8012BA8BFCF
:1004400020F8022BA1EB0C0100F056B85FEAC17C4A
:1004500024BF00F8012B00F8012B48BF00F8012B46
:10046000704770477047704770470000074B70B582
:100470000D467B4400F06BF80446284600F07AF8FD
:1004800010B14FF0FF3070BD204670BD270E000048
:1004900010B5203AC0F00B80B1E81850203AA0E81F
:1004A0001850B1E81850A0E81850BFF4F5AF5FEA53
:1004B000027C24BFB1E81850A0E8185044BF18C906
:1004C00018C0BDE810405FEA827C24BF51F8043BAD
:1004D00040F8043B08BF7047D20728BF31F8023B01
:1004E00048BF11F8012B28BF20F8023B48BF00F895
:1004F000012B70474FF0000200B513469446964614
:10050000203922BFA0E80C50A0E80C50B1F1200126
:10051000BFF4F7AF090728BFA0E80C5048BF0CC0D4
:100520005DF804EB890028BF40F8042B08BF704732
:1005300048BF20F8022B11F0804F18BF00F8012BA4
:100540007047000001694A1C02610878704700B5D5
:100550008FB0CDE901310021059105497944CDE9FC
:1005600003101146684600F02EF80FB000BD0000E1
:10057000E5FFFFFF007B00F080007047754600F04C
:100580003FF8AE4605006946534620F00700854611
:1005900018B020B5FFF756FEBDE820404FF000062A
:1005A0004FF000074FF000084FF0000B21F007015B
:1005B000AC46ACE8C009ACE8C009ACE8C009ACE89E
:1005C000C0098D4670472DE9F04106460024D6E962
:1005D0000170F5688046304603E04146B847641C28
:1005E0003046A8470028F8D12046BDE8F08110B574
:1005F0000446AFF300802046BDE81040FFF70DBE73
:10060000004870470405002000BFFEE710B506490A
:10061000064800F0F5F830B10349044800F010F83E
:1006200003A0FFF799FE10BD0088002088600240FB
:100630000D0A20444D412066756C6C0D0A000000C7
:100640000246094B9A4201D2084801E00648103898
:1006500001F000531BB1064B0B40C36002E0044B9A
:100660000B4083607047000010640240006002404D
:100670007D0F7D0F21B1026842F00102026003E0AC
:10068000026822F00102026070470000016821F058
:10069000010101600021016041608160C160016170
:1006A000212141614A49884204D13D21484A103AFA
:1006B00091608CE046491831884205D14FF474614D
:1006C000434A103A916082E041493031884205D175
:1006D0004FF474113E4A103A916078E03C49483139
:1006E000884205D14FF07461394A103A91606EE04A
:1006F00037496031884204D13649354A103AD160D1
:1007000065E033497831884204D13349304A103AA0
:10071000D1605CE02E499031884204D12F492C4AA7
:10072000103AD16053E02A49A831884205D14FF0F0
:100730003D51274A103AD16049E02949884204D105
:100740003D21274A083A116041E025491831884285
:1007500005D14FF47461224A083A116037E020490C
:100760003031884205D14FF474111D4A083A1160A6
:100770002DE01B494831884205D14FF07461184A79
:10078000083A116023E016496031884204D11149CA
:10079000134A121F11601AE011497831884204D1BE
:1007A0000D490F4A121F116011E00D499031884226
:1007B00004D10A490A4A121F116008E00849A83109
:1007C000884204D14FF03D51054A121F1160704715
:1007D000106002403D000020400F002000003D203E
:1007E00010640240014600200A6802F001020AB1CA
:1007F000012000E0002070470146486880B2704741
:1008000070B50246002000240025124EB24201D2EB
:10081000114B01E00F4B103B104E0E4036B11E261F
:1008200006EAD124166806EA040502E0566906F0D5
:10083000800501F000560EB15C6800E01C68084EAF
:10084000344004EA010616B10DB1012000E0002099
:1008500070BD000010640240006002403C0F3C0F7D
:100860007D0F7D0F10B500220268134B1A40CC6833
:100870000B6823434C6923438C692343CC6923438E
:100880000C6A23434C6A23438C6A23434C6B2343F7
:100890008C6B23431A430260426922F00702D1E9BC
:1008A0000B3423431A4342610B6943604B688360F6
:1008B0008B68C36010BD00003F801CF04160704732
:1008C0007047F0B50A4600210023002400BF3DE038
:1008D000012505FA01F3156805EA03049C4234D1A9
:1008E00005684F000326BE40B543056015794E00EC
:1008F000B5400668354305601579012D02D015799C
:10090000022D16D185684F000326BE40B543856091
:1009100055794E00B54086683543856045680126A7
:100920008E40B5434560456896798E40B6B23543F2
:100930004560C5684F000326BE40B543C560D57904
:100940004E00B540C6683543C560491C1029BFD369
:10095000F0BDF0B5002300244D07ED0E02FA05F3BB
:10096000CE1000F1200555F826504E07F70E0F2641
:10097000BE40B543CF1000F1200646F82750CE10F8
:1009800000F1200555F8265045EA0304CE1000F189
:10099000200545F82640F0BD00BFFEE700BFFEE79A
:1009A0007047000070B5002100230F22C4781CB3EB
:1009B000174C246804F4E064C4F5E064C4F3072130
:1009C000C1F10404E3B20A4144789C40E1B2847866
:1009D000144021430C07210E0E4C05786155047814
:1009E00004F01F050124AC4005786D11AD0005F140
:1009F000E025C5F8004109E0047804F01F05012452
:100A0000AC40054D0678761145F8264070BD0000D3
:100A10000CED00E000E400E080E100E07047000041
:100A200029B1064A12680243044B1A6004E0034AE3
:100A300012688243014B1A60704700003038024050
:100A400029B1064A12680243044B1A6004E0034AC3
:100A500012688243014B1A60704700004038024020
:100A600029B1064A12680243044B1A6004E0034AA3
:100A700012688243014B1A607047000044380240FC
:100A8000F0B5002100220024022500260223324F67
:100A90003F6807F00C0121B1042905D0082937D19E
:100AA00005E02E4F076036E02D4F076033E02A4FF8
:100AB0003F1F3F68C7F38056274F3F1F3F6807F02F
:100AC0003F036EB1264FB7FBF3F7DFF88CC0ACF1F4
:100AD000040CDCF800C0CCF3881C07FB0CF40CE021
:100AE0001E4FB7FBF3F7DFF870C0ACF1040CDCF875
:100AF00000C0CCF3881C07FB0CF4174F3F1F3F6866
:100B0000C7F301477F1C7D00B4FBF5F7076002E0E7
:100B1000124F076000BF00BF0F4F3F6807F0F001A2
:100B20000909104F7A5C0768D74047600A4F3F6851
:100B300007F4E051890A0B4F7A5C4768D740876019
:100B4000054F3F6807F46041490B064F7A5C4768E0
:100B5000D740C760F0BD0000083802400024F40010
:100B600000127A002C000020704700000CB5002015
:100B7000019000903448006840F4803032490860A9
:100B800000BF3148006800F4003000900198401C1C
:100B90000190009818B90198B0F5A04FF1D12A48FA
:100BA000006800F4003010B10120009001E0002046
:100BB00000900098012846D123484030006840F05A
:100BC00080502149403108602048006840F440408E
:100BD0001E4908601C48083000681B49083108603D
:100BE0000846006840F4004008600846006840F489
:100BF000A05008601648091F0860081F006840F0F0
:100C00008070091F086000BF0F48006800F0007086
:100C10000028F9D040F205700E4908600A480830F3
:100C2000006820F0030008490831086008460068A1
:100C300040F00200086000BF03480830006800F080
:100C40000C000828F8D10CBD0038024000700040AC
:100C500008544007003C0240074800684FF47A718E
:100C6000B0FBF1F0054A13685268C01842F1000168
:100C7000024A1060516070471800002010000020E8
:100C800010B51548006840F4700013490860134817
:100C9000006840F001001149086000200F49083148
:100CA00008600E4800680E4908400C4908600D486D
:100CB000091D0860081F006820F48020091F0860D3
:100CC000002006490C310860FFF750FF4FF000602C
:100CD00001498039086010BD88ED00E0003802400D
:100CE000FFFFF6FE1030002410B540F225511D48DC
:100CF00000F064F910B31B4800F01AFAC4B21A48A5
:100D0000008800F40040C8B91748008800F480400B
:100D100060B10A2C03D000201349088020E012485B
:100D2000008840F400401049088019E00D2C06D1DD
:100D30000D48008840F480400B49088010E00A48C4
:100D40000088C0F30D0009490C5407480088401C76
:100D50000549088008460088C72801DD0020088072
:100D600010BD000000100140040000203C000020E5
:100D700000B597B001210846FFF752FE0121480552
:100D8000FFF74EFE01214804FFF75AFE0722022119
:100D90003E48FFF7DEFD072203213C48FFF7D9FD5F
:100DA0000C20159002208DF8580000208DF85A0074
:100DB00001208DF85B0002208DF8590015A93348F9
:100DC000FFF77FFD4FF4E13011900020ADF84800AF
:100DD000ADF84A00ADF84C00ADF850000C20ADF86D
:100DE0004E0011A92A4800F039F92A48FFF74EFCB5
:100DF00000212848FFF73EFC00BF2648FFF7F2FC21
:100E00000028FAD14FF0006002902148001D0390A5
:100E100021480490002005904FF4007006900020B7
:100E200007904FF480600890002009900A900B9082
:100E30004FF400300C9000200D900E900F90109009
:100E400002A91448FFF70EFD012240F22441104888
:100E500000F0DEF826208DF8040001208DF8050052
:100E60008DF806008DF8070001A8FFF79BFD012211
:100E70004021074800F08CF801210648FFF7FAFBF3
:100E80000121034800F078F817B000BD00000240CF
:100E900000440040886002400401002010B540F288
:100EA0002441234800F08AF800283FD020480088D9
:100EB000C4B21F48001D0088C4B200211D48FFF7BE
:100EC000D9FB00BF1B48FFF78DFC0028FAD1194859
:100ED000FFF792FCC0F500701749088008460088AB
:100EE000002814DD0846028814491548FFF752FA15
:100EF00000201349104A12888854124800780128AB
:100F000002D111A0FFF728FA01200E4908704FF412
:100F100000710848FFF7D2FC4FF474600549883926
:100F2000C86001210348FFF7A5FB00BF10BD00000A
:100F300000440040886002400600002004010020B8
:100F400004030020080000200D0A5B5741524E495F
:100F50004E475D3A2050726576696F757320646103
:100F60007461206E6F742070726F63657373656453
:100F700020796574210D0A0021B1828942F4005262
:100F8000828104E082894DF6FF731A4082817047A6
:100F90001AB1838A0B43838202E0838A8B43838264
:100FA000704702460020B1F5007F00D100BF1388D2
:100FB0000B400BB1012000E00020704770B50246E5
:100FC000002400230025002040F66A16B14200D11B
:100FD00000BFC1F3421501F01F03012606FA03F317
:100FE000012D02D19689334006E0022D02D1168AE6
:100FF000334001E0968A33400C12012606FA04F4CD
:101000001688344013B10CB1012000E0002070BDFF
:10101000F0B50346002400260025002040F66A179C
:10102000B94200D100BF1846C1F3421401F01F06B7
:10103000012707FA06F5012C01D10C3004E0022C3F
:1010400001D1103000E014301AB107682F43076057
:1010500002E00768AF430760F0BD00002DE9FF47DD
:1010600005460E460024A14600BFA046B08900B147
:1010700000BF2C8A24F44054F08804432C82AC89AD
:1010800041F20C608443B088318908437189084378
:101090000443AC81AC8A24F44074B0890443AC822C
:1010A0006846FFF7EDFC2048854202D01F48854284
:1010B00002D1DDF80C9001E0DDF80890A88900F479
:1010C000004040B109EBC90000EB0910316849004C
:1010D000B0FBF1F707E009EBC90000EB091031683C
:1010E0008900B0FBF1F76420B7FBF0F004012009A0
:1010F000642101FB1078A88900F4004040B132203F
:1011000000EBC800B0FBF1F000F00700044308E07A
:10111000322000EB08106421B0FBF1F000F00F006A
:1011200004432C81BDE8FF870010014000140140FA
:1011300001468888C0F308007047C1F30802828026
:10114000704700BFFEE700BF704700002DE9F04187
:10115000074800684FF47A71B0FBF1F4002500F005
:1011600009F8064622462B46FFF77FF8BDE8F081D6
:1011700018000020F0B500BF0C4C226863684FF0E7
:10118000E0246469094F3E687F68A61947F10005AD
:101190004FF0E024A469301B65F10001034D2C6879
:1011A0006D6854405D402C43E6D1F0BD1000002036
:1011B000064800684FF47A71B0FBF1F04FF0E0217F
:1011C00048610020886107200861704718000020EE
:1011D00070B50446FFF7CEFF05460E4600BFFFF789
:1011E000C9FF401B61EB0601054A12684FF47A7390
:1011F000B2FBF3F2A4FB0232C01A9141EFD370BDEF
:101200001800002010B50020044908700449088027
:101210004FF400710348FFF702F910BD08000020E9
:10122000060000200403002010B5FFF7A1FD10BD4B
:101230002DE9F04105460C46FFF788FF06460F46AC
:1012400019E012480078B0B129461148FFF790F82C
:1012500028B100200D4908700120BDE8F0810DA1E2
:101260000B48FFF785F818B1002008490870F4E72B
:10127000002006490870FFF769FF821B61EB070039
:10128000121B70F10000DCD30020E6E7080000200C
:10129000040300204552524F5200000000BF054A8F
:1012A000128802F04002002AF9D0C2B2014B9A80A3
:1012B0007047000000100140FFF77AFF6420FFF73D
:1012C00087FF4FF4E13000F0B9F8FFF7ADFF4FF4BE
:1012D0007A7216A116A000F07DF818B115A0FFF7DC
:1012E0003BF802E017A0FFF737F84FF47A720FA12E
:1012F00018A000F06FF818B119A0FFF72DF802E060
:101300001BA0FFF729F842F2107208A11EA000F0FE
:1013100061F818B125A0FFF71FF802E027A0FFF73A
:101320001BF802E06420FFF753FFFBE74F4B000080
:10133000415400004553502D4154B3C9B9A60D0A7C
:10134000000000004553502D4154CAA7B0DC0D0ADF
:101350000000000041542B43574D4F44453D3100A0
:10136000C4A3CABDC9E8D6C3B3C9B9A60D0A000053
:10137000C4A3CABDC9E8D6C3B3ACCAB1BBF2CAA73D
:10138000B0DC0D0A0000000041542B43574A415085
:101390003D227768617463616E69736179222C22E2
:1013A0003132333435367171220000005769466995
:1013B00020D2D1C1ACBDD30D0A00000057694669E7
:1013C00020C1ACBDD3B3ACCAB1BBF2CAA7B0DC0D6F
:1013D0000A00000070B504460D461646FFF712FFDE
:1013E0000BE000BF80211448FFF7DBFD0028F9D097
:1013F00014F8011B1048FFF7A0FE14B12078002854
:10140000EFD100BF80210C48FFF7CBFD0028F9D0B9
:101410000D210948FFF791FE00BF80210648FFF724
:10142000C0FD0028F9D00A210348FFF786FEB1B2BB
:101430002846FFF7FDFE70BD0044004010B588B09F
:10144000044601210846FFF7EBFA01211020FFF7BF
:1014500007FB072209212248FFF77BFA07220A210E
:101460001F48FFF776FA4FF4C060069002208DF80F
:101470001C008DF81D0000208DF81E0001208DF845
:101480001F0006A91648FFF71CFA02940020ADF8C9
:101490000C00ADF80E00ADF81000ADF814000C20F3
:1014A000ADF8120002A90F48FFF7D8FD01210D4841
:1014B000FFF762FD012240F225510A48FFF7A8FD1F
:1014C00025208DF8040003208DF805008DF8060016
:1014D00001208DF8070001A8FFF764FA08B010BDDD
:1014E00000000240001001404FF04070E1EE100A91
:1014F0007047000014150008000000203C000000A8
:10150000C4010008501500083C0000202C0B00000E
:10151000E0010008000000000000000000000000E2
:10152000000000000000000000000000007A030A34
:101530000000000000000000010203040607080983
:101540000000000001020304010203040607080969
:040000050800018965
:00000001FF
